{
  "contractName": "FundRaiser",
  "abi": [
    {
      "anonymous": false,
      "inputs": [
        {
          "indexed": false,
          "internalType": "uint256",
          "name": "id",
          "type": "uint256"
        },
        {
          "indexed": false,
          "internalType": "string",
          "name": "name",
          "type": "string"
        },
        {
          "indexed": false,
          "internalType": "uint256",
          "name": "AmountAlreadyRaised",
          "type": "uint256"
        },
        {
          "indexed": false,
          "internalType": "address",
          "name": "UserAccount",
          "type": "address"
        },
        {
          "indexed": false,
          "internalType": "bool",
          "name": "raised",
          "type": "bool"
        }
      ],
      "name": "Donate",
      "type": "event"
    },
    {
      "anonymous": false,
      "inputs": [
        {
          "indexed": false,
          "internalType": "uint256",
          "name": "id",
          "type": "uint256"
        },
        {
          "indexed": false,
          "internalType": "string",
          "name": "name",
          "type": "string"
        },
        {
          "indexed": false,
          "internalType": "string",
          "name": "description",
          "type": "string"
        },
        {
          "indexed": false,
          "internalType": "uint256",
          "name": "AmountRequired",
          "type": "uint256"
        },
        {
          "indexed": false,
          "internalType": "uint256",
          "name": "AmountAlreadyRaised",
          "type": "uint256"
        },
        {
          "indexed": false,
          "internalType": "address",
          "name": "UserAccount",
          "type": "address"
        },
        {
          "indexed": false,
          "internalType": "bool",
          "name": "raised",
          "type": "bool"
        }
      ],
      "name": "Registered",
      "type": "event"
    },
    {
      "inputs": [],
      "name": "count",
      "outputs": [
        {
          "internalType": "uint256",
          "name": "",
          "type": "uint256"
        }
      ],
      "stateMutability": "view",
      "type": "function",
      "constant": true
    },
    {
      "inputs": [
        {
          "internalType": "uint256",
          "name": "",
          "type": "uint256"
        }
      ],
      "name": "raisers",
      "outputs": [
        {
          "internalType": "uint256",
          "name": "id",
          "type": "uint256"
        },
        {
          "internalType": "string",
          "name": "name",
          "type": "string"
        },
        {
          "internalType": "string",
          "name": "description",
          "type": "string"
        },
        {
          "internalType": "uint256",
          "name": "AmountRequired",
          "type": "uint256"
        },
        {
          "internalType": "uint256",
          "name": "AmountAlreadyRaised",
          "type": "uint256"
        },
        {
          "internalType": "address",
          "name": "UserAccount",
          "type": "address"
        },
        {
          "internalType": "bool",
          "name": "raised",
          "type": "bool"
        }
      ],
      "stateMutability": "view",
      "type": "function",
      "constant": true
    },
    {
      "inputs": [
        {
          "internalType": "string",
          "name": "name",
          "type": "string"
        },
        {
          "internalType": "string",
          "name": "description",
          "type": "string"
        },
        {
          "internalType": "uint256",
          "name": "AmountRequired",
          "type": "uint256"
        }
      ],
      "name": "register",
      "outputs": [],
      "stateMutability": "nonpayable",
      "type": "function"
    },
    {
      "inputs": [
        {
          "internalType": "uint256",
          "name": "id",
          "type": "uint256"
        }
      ],
      "name": "donate",
      "outputs": [],
      "stateMutability": "payable",
      "type": "function",
      "payable": true
    }
  ],
  "bytecode": "0x60806040526000805534801561001457600080fd5b50610f8d806100246000396000f3fe60806040526004361061003f5760003560e01c806306661abd14610044578063e8a605581461006f578063f14faf6f146101d8578063f396851f14610206575b600080fd5b34801561005057600080fd5b50610059610379565b6040518082815260200191505060405180910390f35b34801561007b57600080fd5b506101d66004803603606081101561009257600080fd5b81019080803590602001906401000000008111156100af57600080fd5b8201836020820111156100c157600080fd5b803590602001918460018302840111640100000000831117156100e357600080fd5b91908080601f016020809104026020016040519081016040528093929190818152602001838380828437600081840152601f19601f8201169050808301925050505050505091929192908035906020019064010000000081111561014657600080fd5b82018360208201111561015857600080fd5b8035906020019184600183028401116401000000008311171561017a57600080fd5b91908080601f016020809104026020016040519081016040528093929190818152602001838380828437600081840152601f19601f8201169050808301925050505050505091929192908035906020019092919050505061037f565b005b610204600480360360208110156101ee57600080fd5b81019080803590602001909291905050506107bd565b005b34801561021257600080fd5b5061023f6004803603602081101561022957600080fd5b8101908080359060200190929190505050610c5d565b6040518088815260200180602001806020018781526020018681526020018573ffffffffffffffffffffffffffffffffffffffff1673ffffffffffffffffffffffffffffffffffffffff16815260200184151515158152602001838103835289818151815260200191508051906020019080838360005b838110156102d15780820151818401526020810190506102b6565b50505050905090810190601f1680156102fe5780820380516001836020036101000a031916815260200191505b50838103825288818151815260200191508051906020019080838360005b8381101561033757808201518184015260208101905061031c565b50505050905090810190601f1680156103645780820380516001836020036101000a031916815260200191505b50995050505050505050505060405180910390f35b60005481565b60008351116103f6576040517f08c379a00000000000000000000000000000000000000000000000000000000081526004018080602001828103825260198152602001807f4e616d65206669656c642063616e277420626520656d7074790000000000000081525060200191505060405180910390fd5b600082511161046d576040517f08c379a00000000000000000000000000000000000000000000000000000000081526004018080602001828103825260208152602001807f4465736372697074696f6e206669656c642063616e277420626520656d70747981525060200191505060405180910390fd5b600081116104c6576040517f08c379a000000000000000000000000000000000000000000000000000000000815260040180806020018281038252602a815260200180610f04602a913960400191505060405180910390fd5b6104ce610e09565b600054816000018181525050838160200181905250828160400181905250670de0b6b3a764000082028160600181815250506000816080018181525050338160a0019073ffffffffffffffffffffffffffffffffffffffff16908173ffffffffffffffffffffffffffffffffffffffff168152505060008160c001901515908115158152505060018190806001815401808255809150506001900390600052602060002090600602016000909190919091506000820151816000015560208201518160010190805190602001906105a6929190610e5e565b5060408201518160020190805190602001906105c3929190610e5e565b50606082015181600301556080820151816004015560a08201518160050160006101000a81548173ffffffffffffffffffffffffffffffffffffffff021916908373ffffffffffffffffffffffffffffffffffffffff16021790555060c08201518160050160146101000a81548160ff021916908315150217905550505060008081548092919060010191905055507faaf0bc14aa0d75f67514d4f559df064974b61a3d34c8c889aa467739ad6596dc60005485858560003360006040518088815260200180602001806020018781526020018681526020018573ffffffffffffffffffffffffffffffffffffffff1673ffffffffffffffffffffffffffffffffffffffff16815260200184151515158152602001838103835289818151815260200191508051906020019080838360005b838110156107105780820151818401526020810190506106f5565b50505050905090810190601f16801561073d5780820380516001836020036101000a031916815260200191505b50838103825288818151815260200191508051906020019080838360005b8381101561077657808201518184015260208101905061075b565b50505050905090810190601f1680156107a35780820380516001836020036101000a031916815260200191505b50995050505050505050505060405180910390a150505050565b600081101580156107cf575060005481105b610841576040517f08c379a00000000000000000000000000000000000000000000000000000000081526004018080602001828103825260158152602001807f506c6561736520656e7465722076616c6964204944000000000000000000000081525060200191505060405180910390fd5b3373ffffffffffffffffffffffffffffffffffffffff166001828154811061086557fe5b906000526020600020906006020160050160009054906101000a900473ffffffffffffffffffffffffffffffffffffffff1673ffffffffffffffffffffffffffffffffffffffff161415610904576040517f08c379a000000000000000000000000000000000000000000000000000000000815260040180806020018281038252602a815260200180610f2e602a913960400191505060405180910390fd5b600015156001828154811061091557fe5b906000526020600020906006020160050160149054906101000a900460ff161515146109a9576040517f08c379a00000000000000000000000000000000000000000000000000000000081526004018080602001828103825260148152602001807f46756e647261697365722068617320656e64656400000000000000000000000081525060200191505060405180910390fd5b34600182815481106109b757fe5b90600052602060002090600602016004015401600182815481106109d757fe5b906000526020600020906006020160040181905550600181815481106109f957fe5b90600052602060002090600602016003015460018281548110610a1857fe5b90600052602060002090600602016004015410610a66576001808281548110610a3d57fe5b906000526020600020906006020160050160146101000a81548160ff0219169083151502179055505b60018181548110610a7357fe5b906000526020600020906006020160050160009054906101000a900473ffffffffffffffffffffffffffffffffffffffff1673ffffffffffffffffffffffffffffffffffffffff166108fc349081150290604051600060405180830381858888f19350505050158015610aea573d6000803e3d6000fd5b507fe82d6124c2a82e155b406cca281fcd6cdeeb87f0dba8fa5cdadbac379b7103448160018381548110610b1a57fe5b906000526020600020906006020160010160018481548110610b3857fe5b9060005260206000209060060201600401543360018681548110610b5857fe5b906000526020600020906006020160050160149054906101000a900460ff1660405180868152602001806020018581526020018473ffffffffffffffffffffffffffffffffffffffff1673ffffffffffffffffffffffffffffffffffffffff16815260200183151515158152602001828103825286818154600181600116156101000203166002900481526020019150805460018160011615610100020316600290048015610c485780601f10610c1d57610100808354040283529160200191610c48565b820191906000526020600020905b815481529060010190602001808311610c2b57829003601f168201915b5050965050505050505060405180910390a150565b60018181548110610c6a57fe5b9060005260206000209060060201600091509050806000015490806001018054600181600116156101000203166002900480601f016020809104026020016040519081016040528092919081815260200182805460018160011615610100020316600290048015610d1c5780601f10610cf157610100808354040283529160200191610d1c565b820191906000526020600020905b815481529060010190602001808311610cff57829003601f168201915b505050505090806002018054600181600116156101000203166002900480601f016020809104026020016040519081016040528092919081815260200182805460018160011615610100020316600290048015610dba5780601f10610d8f57610100808354040283529160200191610dba565b820191906000526020600020905b815481529060010190602001808311610d9d57829003601f168201915b5050505050908060030154908060040154908060050160009054906101000a900473ffffffffffffffffffffffffffffffffffffffff16908060050160149054906101000a900460ff16905087565b6040518060e001604052806000815260200160608152602001606081526020016000815260200160008152602001600073ffffffffffffffffffffffffffffffffffffffff1681526020016000151581525090565b828054600181600116156101000203166002900490600052602060002090601f016020900481019282601f10610e9f57805160ff1916838001178555610ecd565b82800160010185558215610ecd579182015b82811115610ecc578251825591602001919060010190610eb1565b5b509050610eda9190610ede565b5090565b610f0091905b80821115610efc576000816000905550600101610ee4565b5090565b9056fe416d6f756e7420746f20626520726169736564206d7573742062652067726561746572207468616e2030557365722063616e6e6f7420646f6e61746520746f20697473206f776e2066756e642d72616973657273a26469706673582212207ff2625cd665ba72af6538e556f9ef50abd4075671d511c860eea2d9b34a063764736f6c63430006000033",
  "source": "pragma solidity >=0.4.22 <0.9.0;\r\n\r\ncontract FundRaiser {\r\n\r\n    struct FundRaiser {\r\n        uint256 id;\r\n        string name;\r\n        string description;\r\n        uint256 AmountRequired;\r\n        uint256 AmountAlreadyRaised;\r\n        address UserAccount;\r\n        bool raised;\r\n    }\r\n\r\n    uint256 public count = 0;\r\n    FundRaiser[] public raisers;\r\n\r\n    event Registered(uint256 id, string name, string description, uint256 AmountRequired, uint256 AmountAlreadyRaised, address UserAccount, bool raised);\r\n    event Donate(uint256 id, string name, uint256 AmountAlreadyRaised, address UserAccount, bool raised);\r\n\r\n    function register(string memory name, string memory description, uint256 AmountRequired) public {\r\n        require(bytes(name).length>0, \"Name field can't be empty\");\r\n        require(bytes(description).length>0, \"Description field can't be empty\");\r\n        require(AmountRequired>0, \"Amount to be raised must be greater than 0\");\r\n        FundRaiser memory raiser;\r\n        raiser.id=count;\r\n        raiser.name=name;\r\n        raiser.description=description;\r\n        raiser.AmountRequired=AmountRequired*(1 ether);\r\n        raiser.AmountAlreadyRaised=0;\r\n        raiser.UserAccount=msg.sender;\r\n        raiser.raised=false;\r\n        raisers.push(raiser);\r\n        count++;\r\n        emit Registered(count, name, description, AmountRequired, 0, msg.sender, false);\r\n    }\r\n\r\n    function donate(uint256 id) public payable {\r\n        require(id>=0 && id<count, \"Please enter valid ID\");\r\n        require(raisers[id].UserAccount!=msg.sender, \"User cannot donate to its own fund-raisers\");\r\n        require(raisers[id].raised==false, \"Fundraiser has ended\");\r\n        raisers[id].AmountAlreadyRaised=raisers[id].AmountAlreadyRaised+msg.value;\r\n        if(raisers[id].AmountAlreadyRaised>=raisers[id].AmountRequired)\r\n        {\r\n            raisers[id].raised=true;\r\n        }\r\n        payable(raisers[id].UserAccount).transfer(msg.value);\r\n        emit Donate(id, raisers[id].name, raisers[id].AmountAlreadyRaised, msg.sender, raisers[id].raised);\r\n    }\r\n}",
  "sourcePath": "D:\\KJSCE\\Sem 7\\BCT Lab\\EXP8_Final\\Fund-Raiser\\src\\contracts\\FundRaiser.sol",
  "compiler": {
    "name": "solc",
    "version": "0.6.0+commit.26b70077.Emscripten.clang"
  },
  "schemaVersion": "3.4.11",
  "updatedAt": "2022-11-26T15:57:54.173Z",
  "networkType": "ethereum",
  "devdoc": {
    "methods": {}
  },
  "userdoc": {
    "methods": {}
  }
}